:1000000018C032C031C030C02FC02EC02DC02CC08F
:100010002BC02AC029C028C027C026C025C024C0A4
:1000200023C022C021C06364696E6F7073757858F5
:100030005B0011241FBECFE5D4E0DEBFCDBF10E0D2
:10004000A0E6B0E0E6E9FEE002C005900D92AA3B12
:10005000B107D9F720E0AAEBB0E001C01D92AF3C98
:10006000B207E1F7A7D015C7CBCF98B3282F207FD1
:100070009F70922B98BBC198C39A32E03A95F1F7E2
:1000800000C0C398EFE8F1E03197F1F700C000003D
:1000900028B3F0E18F9FC0011124922F9F70892B0C
:1000A00088BBC39A32E03A95F1F700C0C3988FE954
:1000B0009FE00197F1F700C00000089598B3282F42
:1000C000207F9F70922B98BBC19AC39A32E03A95D9
:1000D000F1F700C0C398EFE8F1E03197F1F700C005
:1000E000000028B3F0E18F9FC0011124922F9F7070
:1000F000892B88BBC39A32E03A95F1F700C0C398C8
:100100008FE99FE00197F1F700C0000008958FEF9D
:1001100087BBC2988FE39CE90197F1F700C000000C
:1001200082E0A3DF88E2A1DF8CE09FDF86E09DDF35
:1001300081E09BDF8FE99FE00197F1F700C00000AD
:10014000089586E080BD88E98AB910BC83E389B947
:100150000895CF93C82F8A3011F48DE0FADF5D9BAC
:10016000FECFCCB9CF9108955F9BFECF8CB108959F
:100170003E9A3F9886B1876886B9089594B321E086
:1001800030E0082E01C0220F0A94EAF720952923B7
:1001900024BB97B18770892B87B9369A349BFECFE1
:1001A000349A84B18093BC0025B12093BB0090E0C9
:1001B000922B0895ACDFC5DFDBDF80E790E0909302
:1001C000CC008093CB0082E690E09093CA008093AD
:1001D000C9008EE790E09093CE008093CD0081E03F
:1001E00044DF6EE770E08CE890E083D0CDEBD0E0A8
:1001F00088EAE82E80E0F82E0BEA10E08AE990E029
:10020000A1D08091C9009091CA0026D08093BA00F5
:10021000DF93CF93FF92EF92C5D080EC26DFDF9380
:10022000CF931F930F938091CE008F938091CD0039
:100230008F9350D08FEF94E32CE08150904020407A
:10024000E1F700C000008DB79EB70A960FB6F8948C
:100250009EBF0FBE8DBFD2CFCF93DF93EC012B811A
:1002600020FF33C026FF0AC02F7B2B838E819F8106
:1002700001969F838E838A8190E029C022FF0FC060
:10028000E881F9818081082E000C990B009719F400
:1002900020622B831AC03196F983E8830EC0EA8569
:1002A000FB85099597FF09C02B81019611F080E22B
:1002B00001C080E1822B8B8308C02E813F812F5F9C
:1002C0003F4F3F832E83992702C08FEF9FEFDF912F
:1002D000CF910895A0E0B0E0EFE6F1E0B3C5AE0144
:1002E000475F5F4F6F8178858D819E816ED0E2E0A0
:1002F000C5C5EF92FF920F931F93CF93DF93DB015E
:1003000013962C9121FF18C08B017C01D0E0C0E036
:10031000F70181917F01882361F0D8011896ED9152
:10032000FC911997B8010995892B91F3DFEFCFEF75
:10033000EFCF8D2F9C2F02C08FEF9FEFCDB7DEB791
:10034000E6E098C50F931F93CF93DF93E091CB0026
:10035000F091CC00238121FF1BC08C01D0E0C0E0D4
:10036000F80181918F016091CB007091CC00DB018D
:100370001896ED91FC911997882331F00995892BF6
:1003800079F3DFEFCFEFECCF8AE00995892B19F0F5
:100390008FEF9FEF02C08D2F9C2FDF91CF911F9188
:1003A0000F910895A0E0B0E0E7EDF1E04BC5AE019C
:1003B0004B5F5F4FFA0161917191AF018091C9006C
:1003C0009091CA0034D3E2E059C5ACE0B0E0EAEE67
:1003D000F1E028C57C016B018A01FC0117821682BD
:1003E000838181FFB0C1CE0101964C01F701938159
:1003F000F60193FD859193FF81916F01882309F4A4
:100400009EC1853239F493FD859193FF81916F01EF
:10041000853221F4B70190E053D4E8CF512C312C30
:1004200020E02032A0F48B3269F030F4803259F0B1
:10043000833269F420612CC08D3239F0803339F475
:10044000216026C02260246023C0286021C027FDCF
:1004500027C030ED380F3A3078F426FF06C0FAE0B6
:100460005F9E300D1124532E13C08AE0389E300D4C
:100470001124332E20620CC08E3221F426FD5FC180
:10048000206406C08C3611F4206802C0883641F41E
:10049000F60193FD859193FF81916F018111C1CF89
:1004A000982F9F7D9554933028F40C5F1F4FFFE3E6
:1004B000F9830DC0833631F0833771F0833509F04D
:1004C00057C021C0F801808189830E5F1F4F4424EB
:1004D0004394512C540114C03801F2E06F0E711C8A
:1004E000F801A080B18026FF03C0652D70E002C036
:1004F0006FEF7FEFC5012C87D8D32C0183012C85AA
:100500002F77222E16C03801F2E06F0E711CF80111
:10051000A080B18026FF03C0652D70E002C06FEFA0
:100520007FEFC5012C87B6D32C012C852068222EA5
:10053000830123FC19C0832D90E048165906A0F4CE
:10054000B70180E290E0BCD33A94F5CFF50127FCE7
:10055000859127FE81915F01B70190E0B1D3311001
:100560003A94F1E04F1A51084114510479F7DEC072
:10057000843611F0893631F5F80127FF07C0608114
:100580007181828193810C5F1F4F08C060817181EE
:10059000072E000C880B990B0E5F1F4F2F76722EC3
:1005A00097FF09C090958095709561957F4F8F4F0B
:1005B0009F4F2068722E2AE030E0A401D2D3A82EEB
:1005C000A81843C0853729F42F7EB22E2AE030E0E8
:1005D00025C0F22FF97FBF2E8F36C1F018F4883571
:1005E00079F0ADC0803719F0883721F0A8C02F2FDF
:1005F0002061B22EB4FE0DC08B2D8460B82E09C0D0
:1006000024FF0AC09F2F9660B92E06C028E030E074
:1006100005C020E130E002C020E132E0F801B7FE81
:1006200007C060817181828193810C5F1F4F06C07A
:100630006081718180E090E00E5F1F4FA40191D333
:10064000A82EA818FB2DFF777F2E76FE0BC0372D26
:100650003E7FA51450F474FE0AC072FC08C0372D0A
:100660003E7E05C0BA2C372D03C0BA2C01C0B52C74
:1006700034FF0DC0FE01EA0DF11D8081803311F4BD
:10068000397E09C032FF06C0B394B39404C0832FEF
:10069000867809F0B39433FD12C030FF06C05A2C9F
:1006A000B31418F4530C5B18B32CB31460F4B701F3
:1006B00080E290E03C8704D3B3943C85F6CFB3143A
:1006C00010F43B1801C0312C34FF11C0B70180E396
:1006D00090E03C87F5D23C8532FF16C031FD03C067
:1006E00088E790E002C088E590E0B7010CC0832F56
:1006F000867851F031FF02C08BE201C080E237FD05
:100700008DE2B70190E0DCD2A51430F4B70180E3AC
:1007100090E0D6D25A94F8CFAA94F401EA0DF11DD4
:100720008081B70190E0CCD2A110F6CF332009F43C
:100730005DCEB70180E290E0C3D23A94F7CFF701E3
:100740008681978102C08FEF9FEF2C96E2E186C3EE
:1007500020FD09C0FC0123FD05C022FF02C07383F8
:10076000628351834083089544FD10C046FD10C04C
:10077000DB01FC01AA0FBB1FEE1FFF1F1094D1F776
:100780006A0F7B1F8E1F9F1F31E003C033E001C043
:1007900034E0660F771F881F991F3150D1F7620F21
:1007A000711D811D911D08950F931F93CF93DF93AA
:1007B0008C01C80151DDEC0197FD06C058D2892B90
:1007C000C1F7B801CE01B4D2CE01DF91CF911F9114
:1007D0000F910895A1E0B0E0EFEEF3E029C38C01A2
:1007E000C62E7A01298338DDAC01552729814B3289
:1007F000510521F04D32510561F42068CA94C110B1
:1008000002C080E06FC0C801298326DD298197FDE1
:10081000F8CF322F3D7FD32E322F307339F580330E
:1008200029F5BB24BA94BC0C09F449C0C80129833A
:1008300013DD298197FD43C0382F3F7D383561F4A2
:100840008D2D8264D82ECA94CA94CC20C1F1C801DF
:1008500003DD97FF0BC033C026FF04C02D2D22609F
:10086000D22E03C03D2D3261D32ECB2C812C912C66
:10087000540120ED280F283078F0D4FE03C0B801D1
:1008800057D21AC02A3040F0D6FEF9CF2F7D3FEE66
:10089000320F3630A0F727504D2DC501B40164DF6B
:1008A0004B015C018D2D8260D82ECA94CC2051F072
:1008B000C801D2DC97FFDDCFD1FC04C0A2CF812CD0
:1008C000912C5401D7FE08C0B094A09490948094C9
:1008D000811C911CA11CB11C2D2DB501A401C701C7
:1008E00037DF81E02196ECE0BFC2A1E2B0E0EAE7A9
:1008F000F4E09CC25C017A01CE0101966C0180E2B9
:10090000F60111928A95E9F7F501838040E050E005
:10091000912C712C70E0A1E0B0E0F90183FC85918D
:1009200083FE81918F01982F9F01811103C080E088
:1009300090E07AC08E3519F44115510549F1E72F41
:10094000F0E0E417F5073CF48D3559F18D3219F4D8
:10095000772001F103C0711001C0982E892F869570
:10096000869586958601080F111D892F87703D0198
:1009700001C0660C8A95EAF7F80180818629808398
:10098000991559F0991510F49F5FE8CF9150E6CF73
:1009900071E004C07724739401C0712C4F5F5F4FE6
:1009A000BCCF772019F08E8180628E83711103C0D5
:1009B0009924939416C0F6019E012F5D3F4F8081CC
:1009C00080958193E217F307D1F7F2CFE114F10498
:1009D00029F0F7018083C70101967C016150912CB9
:1009E000E9F0C50169A338DC69A197FD15C0282F7E
:1009F000269526952695F601E20FF11D208130E01F
:100A0000AC014770552702C0359527954A95E2F706
:100A100020FDDCCFB5018CD1911089CFE114F10418
:100A200011F0F7011082C801A196EEE01BC24F92AF
:100A30005F927F928F929F92AF92BF92CF92DF92FE
:100A4000EF92FF920F931F93CF93DF931F92CDB737
:100A5000DEB76C012B015A01FC0117821682712C42
:100A6000F601F380F201F3FC8591F3FE8191382FBA
:100A70002F01882309F4E5C090E03983F8D039814B
:100A8000892B19F0C60190DEEBCF353241F4F2012B
:100A9000F3FC3591F3FE31912F01353259F4C60143
:100AA0003983DADB398197FDCAC03817C9F2B6013C
:100AB0003FD1C7C03A3239F4F3FC3591F3FE31919E
:100AC0002F0151E001C050E0420110E020ED230F62
:100AD0002A3088F45260612F70E080E090E040E2BC
:100AE000598342DE162FF401F3FC3591F3FE319168
:100AF0004F015981EBCF052F232F240151FF03C054
:100B0000111102C09EC01FEF383619F03C3659F063
:100B100011C0F401F3FC2591F3FE21912F01283639
:100B200049F4052F08600460F201F3FC2591F3FEFF
:100B300021912F01222309F484C0622F70E086E204
:100B400090E029839CD02981892B09F47AC000FD8B
:100B500007C0F501E080F180C50102965C0102C08A
:100B6000E12CF12C2E3649F4F6014681578160E0E4
:100B700070E0202FC701ECDD73CF233689F401FF2D
:100B800011E0C60169DB97FD5AC0E114F10429F0B8
:100B9000F7018083C70101967C01115091F74BC08A
:100BA0002B3551F49201A701612FC6019EDE2C0165
:100BB000892B09F040C03AC0C6012983F5DD29819F
:100BC00097FD3DC02F3641F128F4243619F129361E
:100BD00031F124C0233769F02537E1F01FC0E1145B
:100BE000F10429F0F7018082C70101967C011150C0
:100BF00059F0C60131DB4C0197FD06C038D0892B76
:100C000071F3B601C40194D0E114F104A1F0F7012D
:100C1000108211C0006203C0006101C00064202F77
:100C2000A701612FC601D6DD811105C0F6018381C0
:100C3000807329F406C000FD13CF739411CF772081
:100C400019F0872D90E002C08FEF9FEF0F90DF919A
:100C5000CF911F910F91FF90EF90DF90CF90BF90B9
:100C6000AF909F908F907F905F904F9008959111DB
:100C7000D6C0803219F089508550D0F70895FC0114
:100C80000590061621F00020D9F7C001089531978C
:100C9000CF010895FC010590615070400110D8F714
:100CA000809590958E0F9F1F0895FC0161507040B4
:100CB00001900110D8F7809590958E0F9F1F089591
:100CC0000F931F93CF93DF93FB01238121FD03C07B
:100CD0008FEF9FEF28C022FF16C0468157812481E5
:100CE00035814217530744F4A081B1819D012F5FE4
:100CF0003F4F318320838C93268137812F5F3F4F75
:100D00003783268310C0EB01092F182F0084F1854B
:100D1000E02D0995892BE1F68E819F8101969F83B5
:100D20008E83812F902FDF91CF911F910F91089586
:100D3000FB01238120FF12C026FD10C08F3F3FEF33
:100D4000930761F082832F7D20642383268137817E
:100D50002150310937832683992708958FEF9FEF1C
:100D60000895FA01AA27283051F1203181F1E89441
:100D70006F936E7F6E5F7F4F8F4F9F4FAF4FB1E08E
:100D80003ED0B4E03CD0670F781F891F9A1FA11D89
:100D9000680F791F8A1F911DA11D6A0F711D811D8A
:100DA000911DA11D20D009F468943F912AE0269F4F
:100DB00011243019305D3193DEF6CF010895462FAE
:100DC0004770405D4193B3E00FD0C9F7F6CF462F8F
:100DD0004F70405D4A3318F0495D31FD40524193F8
:100DE00002D0A9F7EACFB4E0A695979587957795B5
:100DF0006795BA95C9F700976105710508959B013C
:100E0000AC010A2E06945795479537952795BA95C4
:100E1000C9F7620F731F841F951FA01D089599279E
:100E2000882708952F923F924F925F926F927F9200
:100E30008F929F92AF92BF92CF92DF92EF92FF92EA
:100E40000F931F93CF93DF93CDB7DEB7CA1BDB0B96
:100E50000FB6F894DEBF0FBECDBF09942A8839883B
:100E600048885F846E847D848C849B84AA84B98442
:100E7000C884DF80EE80FD800C811B81AA81B9814E
:100E8000CE0FD11D0FB6F894DEBF0FBECDBFED0162
:060E90000895F894FFCF65
:100E9600020000000001000000000000B400000095
:100EA6000000000200000000A90000000000000091
:100EB6000002000000005E00000000004C6574693E
:100EC600636961204C696E64610048656C6C6F20D3
:100ED6006D756E646F217A00257300596F752077E2
:0A0EE600726F74652025730A000086
:00000001FF
